{
  "contractName": "TimelessNFT",
  "abi": [
    {
      "inputs": [
        {
          "internalType": "string",
          "name": "_name",
          "type": "string"
        },
        {
          "internalType": "string",
          "name": "_symbol",
          "type": "string"
        },
        {
          "internalType": "uint256",
          "name": "_royalityFee",
          "type": "uint256"
        },
        {
          "internalType": "address",
          "name": "_artist",
          "type": "address"
        }
      ],
      "stateMutability": "nonpayable",
      "type": "constructor"
    },
    {
      "anonymous": false,
      "inputs": [
        {
          "indexed": true,
          "internalType": "address",
          "name": "owner",
          "type": "address"
        },
        {
          "indexed": true,
          "internalType": "address",
          "name": "approved",
          "type": "address"
        },
        {
          "indexed": true,
          "internalType": "uint256",
          "name": "tokenId",
          "type": "uint256"
        }
      ],
      "name": "Approval",
      "type": "event"
    },
    {
      "anonymous": false,
      "inputs": [
        {
          "indexed": true,
          "internalType": "address",
          "name": "owner",
          "type": "address"
        },
        {
          "indexed": true,
          "internalType": "address",
          "name": "operator",
          "type": "address"
        },
        {
          "indexed": false,
          "internalType": "bool",
          "name": "approved",
          "type": "bool"
        }
      ],
      "name": "ApprovalForAll",
      "type": "event"
    },
    {
      "anonymous": false,
      "inputs": [
        {
          "indexed": true,
          "internalType": "address",
          "name": "previousOwner",
          "type": "address"
        },
        {
          "indexed": true,
          "internalType": "address",
          "name": "newOwner",
          "type": "address"
        }
      ],
      "name": "OwnershipTransferred",
      "type": "event"
    },
    {
      "anonymous": false,
      "inputs": [
        {
          "indexed": false,
          "internalType": "uint256",
          "name": "id",
          "type": "uint256"
        },
        {
          "indexed": true,
          "internalType": "address",
          "name": "owner",
          "type": "address"
        },
        {
          "indexed": false,
          "internalType": "uint256",
          "name": "cost",
          "type": "uint256"
        },
        {
          "indexed": false,
          "internalType": "string",
          "name": "metadataURI",
          "type": "string"
        },
        {
          "indexed": false,
          "internalType": "uint256",
          "name": "timestamp",
          "type": "uint256"
        }
      ],
      "name": "Sale",
      "type": "event"
    },
    {
      "anonymous": false,
      "inputs": [
        {
          "indexed": true,
          "internalType": "address",
          "name": "from",
          "type": "address"
        },
        {
          "indexed": true,
          "internalType": "address",
          "name": "to",
          "type": "address"
        },
        {
          "indexed": true,
          "internalType": "uint256",
          "name": "tokenId",
          "type": "uint256"
        }
      ],
      "name": "Transfer",
      "type": "event"
    },
    {
      "inputs": [
        {
          "internalType": "address",
          "name": "to",
          "type": "address"
        },
        {
          "internalType": "uint256",
          "name": "tokenId",
          "type": "uint256"
        }
      ],
      "name": "approve",
      "outputs": [],
      "stateMutability": "nonpayable",
      "type": "function"
    },
    {
      "inputs": [],
      "name": "artist",
      "outputs": [
        {
          "internalType": "address",
          "name": "",
          "type": "address"
        }
      ],
      "stateMutability": "view",
      "type": "function"
    },
    {
      "inputs": [
        {
          "internalType": "address",
          "name": "owner",
          "type": "address"
        }
      ],
      "name": "balanceOf",
      "outputs": [
        {
          "internalType": "uint256",
          "name": "",
          "type": "uint256"
        }
      ],
      "stateMutability": "view",
      "type": "function"
    },
    {
      "inputs": [],
      "name": "cost",
      "outputs": [
        {
          "internalType": "uint256",
          "name": "",
          "type": "uint256"
        }
      ],
      "stateMutability": "view",
      "type": "function"
    },
    {
      "inputs": [
        {
          "internalType": "uint256",
          "name": "tokenId",
          "type": "uint256"
        }
      ],
      "name": "getApproved",
      "outputs": [
        {
          "internalType": "address",
          "name": "",
          "type": "address"
        }
      ],
      "stateMutability": "view",
      "type": "function"
    },
    {
      "inputs": [
        {
          "internalType": "uint256",
          "name": "",
          "type": "uint256"
        }
      ],
      "name": "holderOf",
      "outputs": [
        {
          "internalType": "address",
          "name": "",
          "type": "address"
        }
      ],
      "stateMutability": "view",
      "type": "function"
    },
    {
      "inputs": [
        {
          "internalType": "address",
          "name": "owner",
          "type": "address"
        },
        {
          "internalType": "address",
          "name": "operator",
          "type": "address"
        }
      ],
      "name": "isApprovedForAll",
      "outputs": [
        {
          "internalType": "bool",
          "name": "",
          "type": "bool"
        }
      ],
      "stateMutability": "view",
      "type": "function"
    },
    {
      "inputs": [],
      "name": "name",
      "outputs": [
        {
          "internalType": "string",
          "name": "",
          "type": "string"
        }
      ],
      "stateMutability": "view",
      "type": "function"
    },
    {
      "inputs": [],
      "name": "owner",
      "outputs": [
        {
          "internalType": "address",
          "name": "",
          "type": "address"
        }
      ],
      "stateMutability": "view",
      "type": "function"
    },
    {
      "inputs": [
        {
          "internalType": "uint256",
          "name": "tokenId",
          "type": "uint256"
        }
      ],
      "name": "ownerOf",
      "outputs": [
        {
          "internalType": "address",
          "name": "",
          "type": "address"
        }
      ],
      "stateMutability": "view",
      "type": "function"
    },
    {
      "inputs": [],
      "name": "renounceOwnership",
      "outputs": [],
      "stateMutability": "nonpayable",
      "type": "function"
    },
    {
      "inputs": [],
      "name": "royalityFee",
      "outputs": [
        {
          "internalType": "uint256",
          "name": "",
          "type": "uint256"
        }
      ],
      "stateMutability": "view",
      "type": "function"
    },
    {
      "inputs": [
        {
          "internalType": "address",
          "name": "from",
          "type": "address"
        },
        {
          "internalType": "address",
          "name": "to",
          "type": "address"
        },
        {
          "internalType": "uint256",
          "name": "tokenId",
          "type": "uint256"
        }
      ],
      "name": "safeTransferFrom",
      "outputs": [],
      "stateMutability": "payable",
      "type": "function"
    },
    {
      "inputs": [
        {
          "internalType": "address",
          "name": "from",
          "type": "address"
        },
        {
          "internalType": "address",
          "name": "to",
          "type": "address"
        },
        {
          "internalType": "uint256",
          "name": "tokenId",
          "type": "uint256"
        },
        {
          "internalType": "bytes",
          "name": "_data",
          "type": "bytes"
        }
      ],
      "name": "safeTransferFrom",
      "outputs": [],
      "stateMutability": "payable",
      "type": "function"
    },
    {
      "inputs": [
        {
          "internalType": "address",
          "name": "operator",
          "type": "address"
        },
        {
          "internalType": "bool",
          "name": "approved",
          "type": "bool"
        }
      ],
      "name": "setApprovalForAll",
      "outputs": [],
      "stateMutability": "nonpayable",
      "type": "function"
    },
    {
      "inputs": [],
      "name": "supply",
      "outputs": [
        {
          "internalType": "uint256",
          "name": "",
          "type": "uint256"
        }
      ],
      "stateMutability": "view",
      "type": "function"
    },
    {
      "inputs": [
        {
          "internalType": "bytes4",
          "name": "interfaceId",
          "type": "bytes4"
        }
      ],
      "name": "supportsInterface",
      "outputs": [
        {
          "internalType": "bool",
          "name": "",
          "type": "bool"
        }
      ],
      "stateMutability": "view",
      "type": "function"
    },
    {
      "inputs": [],
      "name": "symbol",
      "outputs": [
        {
          "internalType": "string",
          "name": "",
          "type": "string"
        }
      ],
      "stateMutability": "view",
      "type": "function"
    },
    {
      "inputs": [
        {
          "internalType": "uint256",
          "name": "index",
          "type": "uint256"
        }
      ],
      "name": "tokenByIndex",
      "outputs": [
        {
          "internalType": "uint256",
          "name": "",
          "type": "uint256"
        }
      ],
      "stateMutability": "view",
      "type": "function"
    },
    {
      "inputs": [
        {
          "internalType": "address",
          "name": "owner",
          "type": "address"
        },
        {
          "internalType": "uint256",
          "name": "index",
          "type": "uint256"
        }
      ],
      "name": "tokenOfOwnerByIndex",
      "outputs": [
        {
          "internalType": "uint256",
          "name": "",
          "type": "uint256"
        }
      ],
      "stateMutability": "view",
      "type": "function"
    },
    {
      "inputs": [
        {
          "internalType": "uint256",
          "name": "tokenId",
          "type": "uint256"
        }
      ],
      "name": "tokenURI",
      "outputs": [
        {
          "internalType": "string",
          "name": "",
          "type": "string"
        }
      ],
      "stateMutability": "view",
      "type": "function"
    },
    {
      "inputs": [],
      "name": "totalSupply",
      "outputs": [
        {
          "internalType": "uint256",
          "name": "",
          "type": "uint256"
        }
      ],
      "stateMutability": "view",
      "type": "function"
    },
    {
      "inputs": [],
      "name": "totalTx",
      "outputs": [
        {
          "internalType": "uint256",
          "name": "",
          "type": "uint256"
        }
      ],
      "stateMutability": "view",
      "type": "function"
    },
    {
      "inputs": [
        {
          "internalType": "address",
          "name": "from",
          "type": "address"
        },
        {
          "internalType": "address",
          "name": "to",
          "type": "address"
        },
        {
          "internalType": "uint256",
          "name": "tokenId",
          "type": "uint256"
        }
      ],
      "name": "transferFrom",
      "outputs": [],
      "stateMutability": "payable",
      "type": "function"
    },
    {
      "inputs": [
        {
          "internalType": "address",
          "name": "newOwner",
          "type": "address"
        }
      ],
      "name": "transferOwnership",
      "outputs": [],
      "stateMutability": "nonpayable",
      "type": "function"
    },
    {
      "inputs": [
        {
          "internalType": "string",
          "name": "title",
          "type": "string"
        },
        {
          "internalType": "string",
          "name": "description",
          "type": "string"
        },
        {
          "internalType": "string",
          "name": "metadataURI",
          "type": "string"
        },
        {
          "internalType": "uint256",
          "name": "salesPrice",
          "type": "uint256"
        }
      ],
      "name": "payToMint",
      "outputs": [],
      "stateMutability": "payable",
      "type": "function"
    },
    {
      "inputs": [
        {
          "internalType": "uint256",
          "name": "id",
          "type": "uint256"
        }
      ],
      "name": "payToBuy",
      "outputs": [],
      "stateMutability": "payable",
      "type": "function"
    },
    {
      "inputs": [
        {
          "internalType": "uint256",
          "name": "id",
          "type": "uint256"
        },
        {
          "internalType": "uint256",
          "name": "newPrice",
          "type": "uint256"
        }
      ],
      "name": "changePrice",
      "outputs": [
        {
          "internalType": "bool",
          "name": "",
          "type": "bool"
        }
      ],
      "stateMutability": "nonpayable",
      "type": "function"
    },
    {
      "inputs": [],
      "name": "getAllNFTs",
      "outputs": [
        {
          "components": [
            {
              "internalType": "uint256",
              "name": "id",
              "type": "uint256"
            },
            {
              "internalType": "address",
              "name": "owner",
              "type": "address"
            },
            {
              "internalType": "uint256",
              "name": "cost",
              "type": "uint256"
            },
            {
              "internalType": "string",
              "name": "title",
              "type": "string"
            },
            {
              "internalType": "string",
              "name": "description",
              "type": "string"
            },
            {
              "internalType": "string",
              "name": "metadataURI",
              "type": "string"
            },
            {
              "internalType": "uint256",
              "name": "timestamp",
              "type": "uint256"
            }
          ],
          "internalType": "struct TimelessNFT.TransactionStruct[]",
          "name": "",
          "type": "tuple[]"
        }
      ],
      "stateMutability": "view",
      "type": "function"
    },
    {
      "inputs": [
        {
          "internalType": "uint256",
          "name": "id",
          "type": "uint256"
        }
      ],
      "name": "getNFT",
      "outputs": [
        {
          "components": [
            {
              "internalType": "uint256",
              "name": "id",
              "type": "uint256"
            },
            {
              "internalType": "address",
              "name": "owner",
              "type": "address"
            },
            {
              "internalType": "uint256",
              "name": "cost",
              "type": "uint256"
            },
            {
              "internalType": "string",
              "name": "title",
              "type": "string"
            },
            {
              "internalType": "string",
              "name": "description",
              "type": "string"
            },
            {
              "internalType": "string",
              "name": "metadataURI",
              "type": "string"
            },
            {
              "internalType": "uint256",
              "name": "timestamp",
              "type": "uint256"
            }
          ],
          "internalType": "struct TimelessNFT.TransactionStruct",
          "name": "",
          "type": "tuple"
        }
      ],
      "stateMutability": "view",
      "type": "function"
    },
    {
      "inputs": [],
      "name": "getAllTransactions",
      "outputs": [
        {
          "components": [
            {
              "internalType": "uint256",
              "name": "id",
              "type": "uint256"
            },
            {
              "internalType": "address",
              "name": "owner",
              "type": "address"
            },
            {
              "internalType": "uint256",
              "name": "cost",
              "type": "uint256"
            },
            {
              "internalType": "string",
              "name": "title",
              "type": "string"
            },
            {
              "internalType": "string",
              "name": "description",
              "type": "string"
            },
            {
              "internalType": "string",
              "name": "metadataURI",
              "type": "string"
            },
            {
              "internalType": "uint256",
              "name": "timestamp",
              "type": "uint256"
            }
          ],
          "internalType": "struct TimelessNFT.TransactionStruct[]",
          "name": "",
          "type": "tuple[]"
        }
      ],
      "stateMutability": "view",
      "type": "function"
    }
  ],
  "bytecode": "0x60806040526000600f556000601055662386f26fc100006011553480156200002657600080fd5b50604051620059bb380380620059bb83398181016040528101906200004c9190620004af565b8383816000908051906020019062000066929190620001c2565b5080600190805190602001906200007f929190620001c2565b505050620000a262000096620000f460201b60201c565b620000fc60201b60201c565b81600e8190555080600d60006101000a81548173ffffffffffffffffffffffffffffffffffffffff021916908373ffffffffffffffffffffffffffffffffffffffff16021790555050505050620005c4565b600033905090565b6000600a60009054906101000a900473ffffffffffffffffffffffffffffffffffffffff16905081600a60006101000a81548173ffffffffffffffffffffffffffffffffffffffff021916908373ffffffffffffffffffffffffffffffffffffffff1602179055508173ffffffffffffffffffffffffffffffffffffffff168173ffffffffffffffffffffffffffffffffffffffff167f8be0079c531659141344cd1fd0a4f28419497f9722a3daafe3b4186f6b6457e060405160405180910390a35050565b828054620001d0906200058e565b90600052602060002090601f016020900481019282620001f4576000855562000240565b82601f106200020f57805160ff191683800117855562000240565b8280016001018555821562000240579182015b828111156200023f57825182559160200191906001019062000222565b5b5090506200024f919062000253565b5090565b5b808211156200026e57600081600090555060010162000254565b5090565b6000604051905090565b600080fd5b600080fd5b600080fd5b600080fd5b6000601f19601f8301169050919050565b7f4e487b7100000000000000000000000000000000000000000000000000000000600052604160045260246000fd5b620002db8262000290565b810181811067ffffffffffffffff82111715620002fd57620002fc620002a1565b5b80604052505050565b60006200031262000272565b9050620003208282620002d0565b919050565b600067ffffffffffffffff821115620003435762000342620002a1565b5b6200034e8262000290565b9050602081019050919050565b60005b838110156200037b5780820151818401526020810190506200035e565b838111156200038b576000848401525b50505050565b6000620003a8620003a28462000325565b62000306565b905082815260208101848484011115620003c757620003c66200028b565b5b620003d48482856200035b565b509392505050565b600082601f830112620003f457620003f362000286565b5b81516200040684826020860162000391565b91505092915050565b6000819050919050565b62000424816200040f565b81146200043057600080fd5b50565b600081519050620004448162000419565b92915050565b600073ffffffffffffffffffffffffffffffffffffffff82169050919050565b600062000477826200044a565b9050919050565b62000489816200046a565b81146200049557600080fd5b50565b600081519050620004a9816200047e565b92915050565b60008060008060808587031215620004cc57620004cb6200027c565b5b600085015167ffffffffffffffff811115620004ed57620004ec62000281565b5b620004fb87828801620003dc565b945050602085015167ffffffffffffffff8111156200051f576200051e62000281565b5b6200052d87828801620003dc565b9350506040620005408782880162000433565b9250506060620005538782880162000498565b91505092959194509250565b7f4e487b7100000000000000000000000000000000000000000000000000000000600052602260045260246000fd5b60006002820490506001821680620005a757607f821691505b60208210811415620005be57620005bd6200055f565b5b50919050565b6153e780620005d46000396000f3fe6080604052600436106101d85760003560e01c80636352211e11610102578063a22cb46511610095578063dbacc23711610064578063dbacc237146106a5578063e0391b09146106e2578063e985e9c51461070d578063f2fde38b1461074a576101d8565b8063a22cb465146105e6578063b3de019c1461060f578063b88d4fde1461064c578063c87b56dd14610668576101d8565b8063799c0c1e116100d1578063799c0c1e146105585780638da5cb5b1461057457806395d89b411461059f5780639ba4b017146105ca576101d8565b80636352211e1461049c57806370a08231146104d9578063715018a6146105165780637220cf391461052d576101d8565b806323b872dd1161017a57806342842e0e1161014957806342842e0e146103db57806343bc1612146103f75780634f6ccce714610422578063576f7ea71461045f576101d8565b806323b872dd1461032c57806327506f53146103485780632f745c5914610373578063326bb4ad146103b0576101d8565b8063081812fc116101b6578063081812fc14610270578063095ea7b3146102ad57806313faede6146102d657806318160ddd14610301576101d8565b806301ffc9a7146101dd578063047fc9aa1461021a57806306fdde0314610245575b600080fd5b3480156101e957600080fd5b5061020460048036038101906101ff9190613880565b610773565b60405161021191906138c8565b60405180910390f35b34801561022657600080fd5b5061022f6107ed565b60405161023c91906138fc565b60405180910390f35b34801561025157600080fd5b5061025a6107f3565b60405161026791906139b0565b60405180910390f35b34801561027c57600080fd5b50610297600480360381019061029291906139fe565b610885565b6040516102a49190613a6c565b60405180910390f35b3480156102b957600080fd5b506102d460048036038101906102cf9190613ab3565b61090a565b005b3480156102e257600080fd5b506102eb610a22565b6040516102f891906138fc565b60405180910390f35b34801561030d57600080fd5b50610316610a28565b60405161032391906138fc565b60405180910390f35b61034660048036038101906103419190613af3565b610a35565b005b34801561035457600080fd5b5061035d610a95565b60405161036a9190613d1a565b60405180910390f35b34801561037f57600080fd5b5061039a60048036038101906103959190613ab3565b610d1e565b6040516103a791906138fc565b60405180910390f35b3480156103bc57600080fd5b506103c5610dc3565b6040516103d291906138fc565b60405180910390f35b6103f560048036038101906103f09190613af3565b610dc9565b005b34801561040357600080fd5b5061040c610de9565b6040516104199190613a6c565b60405180910390f35b34801561042e57600080fd5b50610449600480360381019061044491906139fe565b610e0f565b60405161045691906138fc565b60405180910390f35b34801561046b57600080fd5b50610486600480360381019061048191906139fe565b610e80565b6040516104939190613de6565b60405180910390f35b3480156104a857600080fd5b506104c360048036038101906104be91906139fe565b6110f2565b6040516104d09190613a6c565b60405180910390f35b3480156104e557600080fd5b5061050060048036038101906104fb9190613e08565b6111a4565b60405161050d91906138fc565b60405180910390f35b34801561052257600080fd5b5061052b61125c565b005b34801561053957600080fd5b50610542611270565b60405161054f91906138fc565b60405180910390f35b610572600480360381019061056d9190613f6a565b611276565b005b34801561058057600080fd5b50610589611649565b6040516105969190613a6c565b60405180910390f35b3480156105ab57600080fd5b506105b4611673565b6040516105c191906139b0565b60405180910390f35b6105e460048036038101906105df91906139fe565b611705565b005b3480156105f257600080fd5b5061060d60048036038101906106089190614051565b611d5a565b005b34801561061b57600080fd5b5061063660048036038101906106319190614091565b611d70565b60405161064391906138c8565b60405180910390f35b61066660048036038101906106619190614172565b611eb3565b005b34801561067457600080fd5b5061068f600480360381019061068a91906139fe565b611f15565b60405161069c91906139b0565b60405180910390f35b3480156106b157600080fd5b506106cc60048036038101906106c791906139fe565b611fbc565b6040516106d99190613a6c565b60405180910390f35b3480156106ee57600080fd5b506106f7611fef565b6040516107049190613d1a565b60405180910390f35b34801561071957600080fd5b50610734600480360381019061072f91906141f5565b612278565b60405161074191906138c8565b60405180910390f35b34801561075657600080fd5b50610771600480360381019061076c9190613e08565b61230c565b005b60007f780e9d63000000000000000000000000000000000000000000000000000000007bffffffffffffffffffffffffffffffffffffffffffffffffffffffff1916827bffffffffffffffffffffffffffffffffffffffffffffffffffffffff191614806107e657506107e582612390565b5b9050919050565b600f5481565b60606000805461080290614264565b80601f016020809104026020016040519081016040528092919081815260200182805461082e90614264565b801561087b5780601f106108505761010080835404028352916020019161087b565b820191906000526020600020905b81548152906001019060200180831161085e57829003601f168201915b5050505050905090565b600061089082612472565b6108cf576040517f08c379a00000000000000000000000000000000000000000000000000000000081526004016108c690614308565b60405180910390fd5b6004600083815260200190815260200160002060009054906101000a900473ffffffffffffffffffffffffffffffffffffffff169050919050565b6000610915826110f2565b90508073ffffffffffffffffffffffffffffffffffffffff168373ffffffffffffffffffffffffffffffffffffffff161415610986576040517f08c379a000000000000000000000000000000000000000000000000000000000815260040161097d9061439a565b60405180910390fd5b8073ffffffffffffffffffffffffffffffffffffffff166109a56124de565b73ffffffffffffffffffffffffffffffffffffffff1614806109d457506109d3816109ce6124de565b612278565b5b610a13576040517f08c379a0000000000000000000000000000000000000000000000000000000008152600401610a0a9061442c565b60405180910390fd5b610a1d83836124e6565b505050565b60115481565b6000600880549050905090565b610a46610a406124de565b8261259f565b610a85576040517f08c379a0000000000000000000000000000000000000000000000000000000008152600401610a7c906144be565b60405180910390fd5b610a9083838361267d565b505050565b60606012805480602002602001604051908101604052809291908181526020016000905b82821015610d1557838290600052602060002090600702016040518060e0016040529081600082015481526020016001820160009054906101000a900473ffffffffffffffffffffffffffffffffffffffff1673ffffffffffffffffffffffffffffffffffffffff1673ffffffffffffffffffffffffffffffffffffffff16815260200160028201548152602001600382018054610b5690614264565b80601f0160208091040260200160405190810160405280929190818152602001828054610b8290614264565b8015610bcf5780601f10610ba457610100808354040283529160200191610bcf565b820191906000526020600020905b815481529060010190602001808311610bb257829003601f168201915b50505050508152602001600482018054610be890614264565b80601f0160208091040260200160405190810160405280929190818152602001828054610c1490614264565b8015610c615780601f10610c3657610100808354040283529160200191610c61565b820191906000526020600020905b815481529060010190602001808311610c4457829003601f168201915b50505050508152602001600582018054610c7a90614264565b80601f0160208091040260200160405190810160405280929190818152602001828054610ca690614264565b8015610cf35780601f10610cc857610100808354040283529160200191610cf3565b820191906000526020600020905b815481529060010190602001808311610cd657829003601f168201915b5050505050815260200160068201548152505081526020019060010190610ab9565b50505050905090565b6000610d29836111a4565b8210610d6a576040517f08c379a0000000000000000000000000000000000000000000000000000000008152600401610d6190614550565b60405180910390fd5b600660008473ffffffffffffffffffffffffffffffffffffffff1673ffffffffffffffffffffffffffffffffffffffff168152602001908152602001600020600083815260200190815260200160002054905092915050565b600e5481565b610de483838360405180602001604052806000815250611eb3565b505050565b600d60009054906101000a900473ffffffffffffffffffffffffffffffffffffffff1681565b6000610e19610a28565b8210610e5a576040517f08c379a0000000000000000000000000000000000000000000000000000000008152600401610e51906145e2565b60405180910390fd5b60088281548110610e6e57610e6d614602565b5b90600052602060002001549050919050565b610e8861371e565b6013600183610e979190614660565b81548110610ea857610ea7614602565b5b90600052602060002090600702016040518060e0016040529081600082015481526020016001820160009054906101000a900473ffffffffffffffffffffffffffffffffffffffff1673ffffffffffffffffffffffffffffffffffffffff1673ffffffffffffffffffffffffffffffffffffffff16815260200160028201548152602001600382018054610f3b90614264565b80601f0160208091040260200160405190810160405280929190818152602001828054610f6790614264565b8015610fb45780601f10610f8957610100808354040283529160200191610fb4565b820191906000526020600020905b815481529060010190602001808311610f9757829003601f168201915b50505050508152602001600482018054610fcd90614264565b80601f0160208091040260200160405190810160405280929190818152602001828054610ff990614264565b80156110465780601f1061101b57610100808354040283529160200191611046565b820191906000526020600020905b81548152906001019060200180831161102957829003601f168201915b5050505050815260200160058201805461105f90614264565b80601f016020809104026020016040519081016040528092919081815260200182805461108b90614264565b80156110d85780601f106110ad576101008083540402835291602001916110d8565b820191906000526020600020905b8154815290600101906020018083116110bb57829003601f168201915b505050505081526020016006820154815250509050919050565b6000806002600084815260200190815260200160002060009054906101000a900473ffffffffffffffffffffffffffffffffffffffff169050600073ffffffffffffffffffffffffffffffffffffffff168173ffffffffffffffffffffffffffffffffffffffff16141561119b576040517f08c379a000000000000000000000000000000000000000000000000000000000815260040161119290614706565b60405180910390fd5b80915050919050565b60008073ffffffffffffffffffffffffffffffffffffffff168273ffffffffffffffffffffffffffffffffffffffff161415611215576040517f08c379a000000000000000000000000000000000000000000000000000000000815260040161120c90614798565b60405180910390fd5b600360008373ffffffffffffffffffffffffffffffffffffffff1673ffffffffffffffffffffffffffffffffffffffff168152602001908152602001600020549050919050565b6112646128d9565b61126e6000612957565b565b60105481565b6011543410156112bb576040517f08c379a00000000000000000000000000000000000000000000000000000000081526004016112b290614804565b60405180910390fd5b6000600b836040516112cd9190614860565b908152602001604051809103902060009054906101000a900460ff1660ff161461132c576040517f08c379a0000000000000000000000000000000000000000000000000000000008152600401611323906148c3565b60405180910390fd5b611334611649565b73ffffffffffffffffffffffffffffffffffffffff163373ffffffffffffffffffffffffffffffffffffffff1614156113a2576040517f08c379a00000000000000000000000000000000000000000000000000000000081526004016113999061492f565b60405180910390fd5b60006064600e54346113b4919061494f565b6113be91906149d8565b90506113ec600d60009054906101000a900473ffffffffffffffffffffffffffffffffffffffff1682612a1d565b6114086113f7611649565b82346114039190614660565b612a1d565b600f600081548092919061141b90614a09565b919050555060136040518060e00160405280600f5481526020013373ffffffffffffffffffffffffffffffffffffffff1681526020018481526020018781526020018681526020018581526020014281525090806001815401808255809150506001900390600052602060002090600702016000909190919091506000820151816000015560208201518160010160006101000a81548173ffffffffffffffffffffffffffffffffffffffff021916908373ffffffffffffffffffffffffffffffffffffffff16021790555060408201518160020155606082015181600301908051906020019061150d929190613771565b50608082015181600401908051906020019061152a929190613771565b5060a0820151816005019080519060200190611547929190613771565b5060c0820151816006015550503373ffffffffffffffffffffffffffffffffffffffff167fb9508407a6eccb191d8da3286f4173697cf95604e9ea192fe5ab7c862b5221f6600f543486426040516115a29493929190614a52565b60405180910390a26115b633600f54612a98565b6001600b846040516115c89190614860565b908152602001604051809103902060006101000a81548160ff021916908360ff16021790555033600c6000600f54815260200190815260200160002060006101000a81548173ffffffffffffffffffffffffffffffffffffffff021916908373ffffffffffffffffffffffffffffffffffffffff1602179055505050505050565b6000600a60009054906101000a900473ffffffffffffffffffffffffffffffffffffffff16905090565b60606001805461168290614264565b80601f01602080910402602001604051908101604052809291908181526020018280546116ae90614264565b80156116fb5780601f106116d0576101008083540402835291602001916116fb565b820191906000526020600020905b8154815290600101906020018083116116de57829003601f168201915b5050505050905090565b60136001826117149190614660565b8154811061172557611724614602565b5b906000526020600020906007020160020154341015611779576040517f08c379a000000000000000000000000000000000000000000000000000000000815260040161177090614aea565b60405180910390fd5b60136001826117889190614660565b8154811061179957611798614602565b5b906000526020600020906007020160010160009054906101000a900473ffffffffffffffffffffffffffffffffffffffff1673ffffffffffffffffffffffffffffffffffffffff163373ffffffffffffffffffffffffffffffffffffffff161415611839576040517f08c379a000000000000000000000000000000000000000000000000000000000815260040161183090614b56565b60405180910390fd5b60006064600e543461184b919061494f565b61185591906149d8565b9050611883600d60009054906101000a900473ffffffffffffffffffffffffffffffffffffffff1682612a1d565b6118e960136001846118959190614660565b815481106118a6576118a5614602565b5b906000526020600020906007020160010160009054906101000a900473ffffffffffffffffffffffffffffffffffffffff1682346118e49190614660565b612a1d565b601060008154809291906118fc90614a09565b919050555060126040518060e0016040528060105481526020013373ffffffffffffffffffffffffffffffffffffffff16815260200134815260200160136001866119479190614660565b8154811061195857611957614602565b5b9060005260206000209060070201600301805461197490614264565b80601f01602080910402602001604051908101604052809291908181526020018280546119a090614264565b80156119ed5780601f106119c2576101008083540402835291602001916119ed565b820191906000526020600020905b8154815290600101906020018083116119d057829003601f168201915b505050505081526020016013600186611a069190614660565b81548110611a1757611a16614602565b5b90600052602060002090600702016004018054611a3390614264565b80601f0160208091040260200160405190810160405280929190818152602001828054611a5f90614264565b8015611aac5780601f10611a8157610100808354040283529160200191611aac565b820191906000526020600020905b815481529060010190602001808311611a8f57829003601f168201915b505050505081526020016013600186611ac59190614660565b81548110611ad657611ad5614602565b5b90600052602060002090600702016005018054611af290614264565b80601f0160208091040260200160405190810160405280929190818152602001828054611b1e90614264565b8015611b6b5780601f10611b4057610100808354040283529160200191611b6b565b820191906000526020600020905b815481529060010190602001808311611b4e57829003601f168201915b505050505081526020014281525090806001815401808255809150506001900390600052602060002090600702016000909190919091506000820151816000015560208201518160010160006101000a81548173ffffffffffffffffffffffffffffffffffffffff021916908373ffffffffffffffffffffffffffffffffffffffff160217905550604082015181600201556060820151816003019080519060200190611c19929190613771565b506080820151816004019080519060200190611c36929190613771565b5060a0820151816005019080519060200190611c53929190613771565b5060c0820151816006015550503373ffffffffffffffffffffffffffffffffffffffff167fb9508407a6eccb191d8da3286f4173697cf95604e9ea192fe5ab7c862b5221f6601054346013600187611cab9190614660565b81548110611cbc57611cbb614602565b5b906000526020600020906007020160050142604051611cde9493929190614c0b565b60405180910390a2336013600184611cf69190614660565b81548110611d0757611d06614602565b5b906000526020600020906007020160010160006101000a81548173ffffffffffffffffffffffffffffffffffffffff021916908373ffffffffffffffffffffffffffffffffffffffff1602179055505050565b611d6c611d656124de565b8383612ab6565b5050565b6000808211611db4576040517f08c379a0000000000000000000000000000000000000000000000000000000008152600401611dab90614ca3565b60405180910390fd5b6013600184611dc39190614660565b81548110611dd457611dd3614602565b5b906000526020600020906007020160010160009054906101000a900473ffffffffffffffffffffffffffffffffffffffff1673ffffffffffffffffffffffffffffffffffffffff163373ffffffffffffffffffffffffffffffffffffffff1614611e73576040517f08c379a0000000000000000000000000000000000000000000000000000000008152600401611e6a90614b56565b60405180910390fd5b816013600185611e839190614660565b81548110611e9457611e93614602565b5b9060005260206000209060070201600201819055506001905092915050565b611ec4611ebe6124de565b8361259f565b611f03576040517f08c379a0000000000000000000000000000000000000000000000000000000008152600401611efa906144be565b60405180910390fd5b611f0f84848484612c23565b50505050565b6060611f2082612472565b611f5f576040517f08c379a0000000000000000000000000000000000000000000000000000000008152600401611f5690614d35565b60405180910390fd5b6000611f69612c7f565b90506000815111611f895760405180602001604052806000815250611fb4565b80611f9384612c96565b604051602001611fa4929190614d55565b6040516020818303038152906040525b915050919050565b600c6020528060005260406000206000915054906101000a900473ffffffffffffffffffffffffffffffffffffffff1681565b60606013805480602002602001604051908101604052809291908181526020016000905b8282101561226f57838290600052602060002090600702016040518060e0016040529081600082015481526020016001820160009054906101000a900473ffffffffffffffffffffffffffffffffffffffff1673ffffffffffffffffffffffffffffffffffffffff1673ffffffffffffffffffffffffffffffffffffffff168152602001600282015481526020016003820180546120b090614264565b80601f01602080910402602001604051908101604052809291908181526020018280546120dc90614264565b80156121295780601f106120fe57610100808354040283529160200191612129565b820191906000526020600020905b81548152906001019060200180831161210c57829003601f168201915b5050505050815260200160048201805461214290614264565b80601f016020809104026020016040519081016040528092919081815260200182805461216e90614264565b80156121bb5780601f10612190576101008083540402835291602001916121bb565b820191906000526020600020905b81548152906001019060200180831161219e57829003601f168201915b505050505081526020016005820180546121d490614264565b80601f016020809104026020016040519081016040528092919081815260200182805461220090614264565b801561224d5780601f106122225761010080835404028352916020019161224d565b820191906000526020600020905b81548152906001019060200180831161223057829003601f168201915b5050505050815260200160068201548152505081526020019060010190612013565b50505050905090565b6000600560008473ffffffffffffffffffffffffffffffffffffffff1673ffffffffffffffffffffffffffffffffffffffff16815260200190815260200160002060008373ffffffffffffffffffffffffffffffffffffffff1673ffffffffffffffffffffffffffffffffffffffff16815260200190815260200160002060009054906101000a900460ff16905092915050565b6123146128d9565b600073ffffffffffffffffffffffffffffffffffffffff168173ffffffffffffffffffffffffffffffffffffffff161415612384576040517f08c379a000000000000000000000000000000000000000000000000000000000815260040161237b90614deb565b60405180910390fd5b61238d81612957565b50565b60007f80ac58cd000000000000000000000000000000000000000000000000000000007bffffffffffffffffffffffffffffffffffffffffffffffffffffffff1916827bffffffffffffffffffffffffffffffffffffffffffffffffffffffff1916148061245b57507f5b5e139f000000000000000000000000000000000000000000000000000000007bffffffffffffffffffffffffffffffffffffffffffffffffffffffff1916827bffffffffffffffffffffffffffffffffffffffffffffffffffffffff1916145b8061246b575061246a82612d6e565b5b9050919050565b60008073ffffffffffffffffffffffffffffffffffffffff166002600084815260200190815260200160002060009054906101000a900473ffffffffffffffffffffffffffffffffffffffff1673ffffffffffffffffffffffffffffffffffffffff1614159050919050565b600033905090565b816004600083815260200190815260200160002060006101000a81548173ffffffffffffffffffffffffffffffffffffffff021916908373ffffffffffffffffffffffffffffffffffffffff160217905550808273ffffffffffffffffffffffffffffffffffffffff16612559836110f2565b73ffffffffffffffffffffffffffffffffffffffff167f8c5be1e5ebec7d5bd14f71427d1e84f3dd0314c0f7b2291e5b200ac8c7c3b92560405160405180910390a45050565b60006125aa82612472565b6125e9576040517f08c379a00000000000000000000000000000000000000000000000000000000081526004016125e090614e7d565b60405180910390fd5b60006125f4836110f2565b90508073ffffffffffffffffffffffffffffffffffffffff168473ffffffffffffffffffffffffffffffffffffffff16148061266357508373ffffffffffffffffffffffffffffffffffffffff1661264b84610885565b73ffffffffffffffffffffffffffffffffffffffff16145b8061267457506126738185612278565b5b91505092915050565b8273ffffffffffffffffffffffffffffffffffffffff1661269d826110f2565b73ffffffffffffffffffffffffffffffffffffffff16146126f3576040517f08c379a00000000000000000000000000000000000000000000000000000000081526004016126ea90614f0f565b60405180910390fd5b600073ffffffffffffffffffffffffffffffffffffffff168273ffffffffffffffffffffffffffffffffffffffff161415612763576040517f08c379a000000000000000000000000000000000000000000000000000000000815260040161275a90614fa1565b60405180910390fd5b61276e838383612dd8565b6127796000826124e6565b6001600360008573ffffffffffffffffffffffffffffffffffffffff1673ffffffffffffffffffffffffffffffffffffffff16815260200190815260200160002060008282546127c99190614660565b925050819055506001600360008473ffffffffffffffffffffffffffffffffffffffff1673ffffffffffffffffffffffffffffffffffffffff16815260200190815260200160002060008282546128209190614fc1565b92505081905550816002600083815260200190815260200160002060006101000a81548173ffffffffffffffffffffffffffffffffffffffff021916908373ffffffffffffffffffffffffffffffffffffffff160217905550808273ffffffffffffffffffffffffffffffffffffffff168473ffffffffffffffffffffffffffffffffffffffff167fddf252ad1be2c89b69c2b068fc378daa952ba7f163c4a11628f55a4df523b3ef60405160405180910390a4505050565b6128e16124de565b73ffffffffffffffffffffffffffffffffffffffff166128ff611649565b73ffffffffffffffffffffffffffffffffffffffff1614612955576040517f08c379a000000000000000000000000000000000000000000000000000000000815260040161294c90615063565b60405180910390fd5b565b6000600a60009054906101000a900473ffffffffffffffffffffffffffffffffffffffff16905081600a60006101000a81548173ffffffffffffffffffffffffffffffffffffffff021916908373ffffffffffffffffffffffffffffffffffffffff1602179055508173ffffffffffffffffffffffffffffffffffffffff168173ffffffffffffffffffffffffffffffffffffffff167f8be0079c531659141344cd1fd0a4f28419497f9722a3daafe3b4186f6b6457e060405160405180910390a35050565b60008273ffffffffffffffffffffffffffffffffffffffff1682604051612a43906150b4565b60006040518083038185875af1925050503d8060008114612a80576040519150601f19603f3d011682016040523d82523d6000602084013e612a85565b606091505b5050905080612a9357600080fd5b505050565b612ab2828260405180602001604052806000815250612eec565b5050565b8173ffffffffffffffffffffffffffffffffffffffff168373ffffffffffffffffffffffffffffffffffffffff161415612b25576040517f08c379a0000000000000000000000000000000000000000000000000000000008152600401612b1c90615115565b60405180910390fd5b80600560008573ffffffffffffffffffffffffffffffffffffffff1673ffffffffffffffffffffffffffffffffffffffff16815260200190815260200160002060008473ffffffffffffffffffffffffffffffffffffffff1673ffffffffffffffffffffffffffffffffffffffff16815260200190815260200160002060006101000a81548160ff0219169083151502179055508173ffffffffffffffffffffffffffffffffffffffff168373ffffffffffffffffffffffffffffffffffffffff167f17307eab39ab6107e8899845ad3d59bd9653f200f220920489ca2b5937696c3183604051612c1691906138c8565b60405180910390a3505050565b612c2e84848461267d565b612c3a84848484612f47565b612c79576040517f08c379a0000000000000000000000000000000000000000000000000000000008152600401612c70906151a7565b60405180910390fd5b50505050565b606060405180602001604052806000815250905090565b606060006001612ca5846130cf565b01905060008167ffffffffffffffff811115612cc457612cc3613e3f565b5b6040519080825280601f01601f191660200182016040528015612cf65781602001600182028036833780820191505090505b509050600082602001820190505b600115612d63578080600190039150507f3031323334353637383961626364656600000000000000000000000000000000600a86061a8153600a8581612d4d57612d4c6149a9565b5b0494506000851415612d5e57612d63565b612d04565b819350505050919050565b60007f01ffc9a7000000000000000000000000000000000000000000000000000000007bffffffffffffffffffffffffffffffffffffffffffffffffffffffff1916827bffffffffffffffffffffffffffffffffffffffffffffffffffffffff1916149050919050565b612de3838383613222565b600073ffffffffffffffffffffffffffffffffffffffff168373ffffffffffffffffffffffffffffffffffffffff161415612e2657612e2181613227565b612e65565b8173ffffffffffffffffffffffffffffffffffffffff168373ffffffffffffffffffffffffffffffffffffffff1614612e6457612e638382613270565b5b5b600073ffffffffffffffffffffffffffffffffffffffff168273ffffffffffffffffffffffffffffffffffffffff161415612ea857612ea3816133dd565b612ee7565b8273ffffffffffffffffffffffffffffffffffffffff168273ffffffffffffffffffffffffffffffffffffffff1614612ee657612ee582826134ae565b5b5b505050565b612ef6838361352d565b612f036000848484612f47565b612f42576040517f08c379a0000000000000000000000000000000000000000000000000000000008152600401612f39906151a7565b60405180910390fd5b505050565b6000612f688473ffffffffffffffffffffffffffffffffffffffff166136fb565b156130c2578373ffffffffffffffffffffffffffffffffffffffff1663150b7a02612f916124de565b8786866040518563ffffffff1660e01b8152600401612fb3949392919061521c565b6020604051808303816000875af1925050508015612fef57506040513d601f19601f82011682018060405250810190612fec919061527d565b60015b613072573d806000811461301f576040519150601f19603f3d011682016040523d82523d6000602084013e613024565b606091505b5060008151141561306a576040517f08c379a0000000000000000000000000000000000000000000000000000000008152600401613061906151a7565b60405180910390fd5b805181602001fd5b63150b7a0260e01b7bffffffffffffffffffffffffffffffffffffffffffffffffffffffff1916817bffffffffffffffffffffffffffffffffffffffffffffffffffffffff1916149150506130c7565b600190505b949350505050565b600080600090507a184f03e93ff9f4daa797ed6e38ed64bf6a1f010000000000000000831061312d577a184f03e93ff9f4daa797ed6e38ed64bf6a1f0100000000000000008381613123576131226149a9565b5b0492506040810190505b6d04ee2d6d415b85acef8100000000831061316a576d04ee2d6d415b85acef810000000083816131605761315f6149a9565b5b0492506020810190505b662386f26fc10000831061319957662386f26fc10000838161318f5761318e6149a9565b5b0492506010810190505b6305f5e10083106131c2576305f5e10083816131b8576131b76149a9565b5b0492506008810190505b61271083106131e75761271083816131dd576131dc6149a9565b5b0492506004810190505b6064831061320a5760648381613200576131ff6149a9565b5b0492506002810190505b600a8310613219576001810190505b80915050919050565b505050565b6008805490506009600083815260200190815260200160002081905550600881908060018154018082558091505060019003906000526020600020016000909190919091505550565b6000600161327d846111a4565b6132879190614660565b905060006007600084815260200190815260200160002054905081811461336c576000600660008673ffffffffffffffffffffffffffffffffffffffff1673ffffffffffffffffffffffffffffffffffffffff168152602001908152602001600020600084815260200190815260200160002054905080600660008773ffffffffffffffffffffffffffffffffffffffff1673ffffffffffffffffffffffffffffffffffffffff168152602001908152602001600020600084815260200190815260200160002081905550816007600083815260200190815260200160002081905550505b6007600084815260200190815260200160002060009055600660008573ffffffffffffffffffffffffffffffffffffffff1673ffffffffffffffffffffffffffffffffffffffff16815260200190815260200160002060008381526020019081526020016000206000905550505050565b600060016008805490506133f19190614660565b905060006009600084815260200190815260200160002054905060006008838154811061342157613420614602565b5b90600052602060002001549050806008838154811061344357613442614602565b5b906000526020600020018190555081600960008381526020019081526020016000208190555060096000858152602001908152602001600020600090556008805480613492576134916152aa565b5b6001900381819060005260206000200160009055905550505050565b60006134b9836111a4565b905081600660008573ffffffffffffffffffffffffffffffffffffffff1673ffffffffffffffffffffffffffffffffffffffff168152602001908152602001600020600083815260200190815260200160002081905550806007600084815260200190815260200160002081905550505050565b600073ffffffffffffffffffffffffffffffffffffffff168273ffffffffffffffffffffffffffffffffffffffff16141561359d576040517f08c379a000000000000000000000000000000000000000000000000000000000815260040161359490615325565b60405180910390fd5b6135a681612472565b156135e6576040517f08c379a00000000000000000000000000000000000000000000000000000000081526004016135dd90615391565b60405180910390fd5b6135f260008383612dd8565b6001600360008473ffffffffffffffffffffffffffffffffffffffff1673ffffffffffffffffffffffffffffffffffffffff16815260200190815260200160002060008282546136429190614fc1565b92505081905550816002600083815260200190815260200160002060006101000a81548173ffffffffffffffffffffffffffffffffffffffff021916908373ffffffffffffffffffffffffffffffffffffffff160217905550808273ffffffffffffffffffffffffffffffffffffffff16600073ffffffffffffffffffffffffffffffffffffffff167fddf252ad1be2c89b69c2b068fc378daa952ba7f163c4a11628f55a4df523b3ef60405160405180910390a45050565b6000808273ffffffffffffffffffffffffffffffffffffffff163b119050919050565b6040518060e0016040528060008152602001600073ffffffffffffffffffffffffffffffffffffffff16815260200160008152602001606081526020016060815260200160608152602001600081525090565b82805461377d90614264565b90600052602060002090601f01602090048101928261379f57600085556137e6565b82601f106137b857805160ff19168380011785556137e6565b828001600101855582156137e6579182015b828111156137e55782518255916020019190600101906137ca565b5b5090506137f391906137f7565b5090565b5b808211156138105760008160009055506001016137f8565b5090565b6000604051905090565b600080fd5b600080fd5b60007fffffffff0000000000000000000000000000000000000000000000000000000082169050919050565b61385d81613828565b811461386857600080fd5b50565b60008135905061387a81613854565b92915050565b6000602082840312156138965761389561381e565b5b60006138a48482850161386b565b91505092915050565b60008115159050919050565b6138c2816138ad565b82525050565b60006020820190506138dd60008301846138b9565b92915050565b6000819050919050565b6138f6816138e3565b82525050565b600060208201905061391160008301846138ed565b92915050565b600081519050919050565b600082825260208201905092915050565b60005b83811015613951578082015181840152602081019050613936565b83811115613960576000848401525b50505050565b6000601f19601f8301169050919050565b600061398282613917565b61398c8185613922565b935061399c818560208601613933565b6139a581613966565b840191505092915050565b600060208201905081810360008301526139ca8184613977565b905092915050565b6139db816138e3565b81146139e657600080fd5b50565b6000813590506139f8816139d2565b92915050565b600060208284031215613a1457613a1361381e565b5b6000613a22848285016139e9565b91505092915050565b600073ffffffffffffffffffffffffffffffffffffffff82169050919050565b6000613a5682613a2b565b9050919050565b613a6681613a4b565b82525050565b6000602082019050613a816000830184613a5d565b92915050565b613a9081613a4b565b8114613a9b57600080fd5b50565b600081359050613aad81613a87565b92915050565b60008060408385031215613aca57613ac961381e565b5b6000613ad885828601613a9e565b9250506020613ae9858286016139e9565b9150509250929050565b600080600060608486031215613b0c57613b0b61381e565b5b6000613b1a86828701613a9e565b9350506020613b2b86828701613a9e565b9250506040613b3c868287016139e9565b9150509250925092565b600081519050919050565b600082825260208201905092915050565b6000819050602082019050919050565b613b7b816138e3565b82525050565b613b8a81613a4b565b82525050565b600082825260208201905092915050565b6000613bac82613917565b613bb68185613b90565b9350613bc6818560208601613933565b613bcf81613966565b840191505092915050565b600060e083016000830151613bf26000860182613b72565b506020830151613c056020860182613b81565b506040830151613c186040860182613b72565b5060608301518482036060860152613c308282613ba1565b91505060808301518482036080860152613c4a8282613ba1565b91505060a083015184820360a0860152613c648282613ba1565b91505060c0830151613c7960c0860182613b72565b508091505092915050565b6000613c908383613bda565b905092915050565b6000602082019050919050565b6000613cb082613b46565b613cba8185613b51565b935083602082028501613ccc85613b62565b8060005b85811015613d085784840389528151613ce98582613c84565b9450613cf483613c98565b925060208a01995050600181019050613cd0565b50829750879550505050505092915050565b60006020820190508181036000830152613d348184613ca5565b905092915050565b600060e083016000830151613d546000860182613b72565b506020830151613d676020860182613b81565b506040830151613d7a6040860182613b72565b5060608301518482036060860152613d928282613ba1565b91505060808301518482036080860152613dac8282613ba1565b91505060a083015184820360a0860152613dc68282613ba1565b91505060c0830151613ddb60c0860182613b72565b508091505092915050565b60006020820190508181036000830152613e008184613d3c565b905092915050565b600060208284031215613e1e57613e1d61381e565b5b6000613e2c84828501613a9e565b91505092915050565b600080fd5b600080fd5b7f4e487b7100000000000000000000000000000000000000000000000000000000600052604160045260246000fd5b613e7782613966565b810181811067ffffffffffffffff82111715613e9657613e95613e3f565b5b80604052505050565b6000613ea9613814565b9050613eb58282613e6e565b919050565b600067ffffffffffffffff821115613ed557613ed4613e3f565b5b613ede82613966565b9050602081019050919050565b82818337600083830152505050565b6000613f0d613f0884613eba565b613e9f565b905082815260208101848484011115613f2957613f28613e3a565b5b613f34848285613eeb565b509392505050565b600082601f830112613f5157613f50613e35565b5b8135613f61848260208601613efa565b91505092915050565b60008060008060808587031215613f8457613f8361381e565b5b600085013567ffffffffffffffff811115613fa257613fa1613823565b5b613fae87828801613f3c565b945050602085013567ffffffffffffffff811115613fcf57613fce613823565b5b613fdb87828801613f3c565b935050604085013567ffffffffffffffff811115613ffc57613ffb613823565b5b61400887828801613f3c565b9250506060614019878288016139e9565b91505092959194509250565b61402e816138ad565b811461403957600080fd5b50565b60008135905061404b81614025565b92915050565b600080604083850312156140685761406761381e565b5b600061407685828601613a9e565b92505060206140878582860161403c565b9150509250929050565b600080604083850312156140a8576140a761381e565b5b60006140b6858286016139e9565b92505060206140c7858286016139e9565b9150509250929050565b600067ffffffffffffffff8211156140ec576140eb613e3f565b5b6140f582613966565b9050602081019050919050565b6000614115614110846140d1565b613e9f565b90508281526020810184848401111561413157614130613e3a565b5b61413c848285613eeb565b509392505050565b600082601f83011261415957614158613e35565b5b8135614169848260208601614102565b91505092915050565b6000806000806080858703121561418c5761418b61381e565b5b600061419a87828801613a9e565b94505060206141ab87828801613a9e565b93505060406141bc878288016139e9565b925050606085013567ffffffffffffffff8111156141dd576141dc613823565b5b6141e987828801614144565b91505092959194509250565b6000806040838503121561420c5761420b61381e565b5b600061421a85828601613a9e565b925050602061422b85828601613a9e565b9150509250929050565b7f4e487b7100000000000000000000000000000000000000000000000000000000600052602260045260246000fd5b6000600282049050600182168061427c57607f821691505b602082108114156142905761428f614235565b5b50919050565b7f4552433732313a20617070726f76656420717565727920666f72206e6f6e657860008201527f697374656e7420746f6b656e0000000000000000000000000000000000000000602082015250565b60006142f2602c83613922565b91506142fd82614296565b604082019050919050565b60006020820190508181036000830152614321816142e5565b9050919050565b7f4552433732313a20617070726f76616c20746f2063757272656e74206f776e6560008201527f7200000000000000000000000000000000000000000000000000000000000000602082015250565b6000614384602183613922565b915061438f82614328565b604082019050919050565b600060208201905081810360008301526143b381614377565b9050919050565b7f4552433732313a20617070726f76652063616c6c6572206973206e6f74206f7760008201527f6e6572206e6f7220617070726f76656420666f7220616c6c0000000000000000602082015250565b6000614416603883613922565b9150614421826143ba565b604082019050919050565b6000602082019050818103600083015261444581614409565b9050919050565b7f4552433732313a207472616e736665722063616c6c6572206973206e6f74206f60008201527f776e6572206e6f7220617070726f766564000000000000000000000000000000602082015250565b60006144a8603183613922565b91506144b38261444c565b604082019050919050565b600060208201905081810360008301526144d78161449b565b9050919050565b7f455243373231456e756d657261626c653a206f776e657220696e646578206f7560008201527f74206f6620626f756e6473000000000000000000000000000000000000000000602082015250565b600061453a602b83613922565b9150614545826144de565b604082019050919050565b600060208201905081810360008301526145698161452d565b9050919050565b7f455243373231456e756d657261626c653a20676c6f62616c20696e646578206f60008201527f7574206f6620626f756e64730000000000000000000000000000000000000000602082015250565b60006145cc602c83613922565b91506145d782614570565b604082019050919050565b600060208201905081810360008301526145fb816145bf565b9050919050565b7f4e487b7100000000000000000000000000000000000000000000000000000000600052603260045260246000fd5b7f4e487b7100000000000000000000000000000000000000000000000000000000600052601160045260246000fd5b600061466b826138e3565b9150614676836138e3565b92508282101561468957614688614631565b5b828203905092915050565b7f4552433732313a206f776e657220717565727920666f72206e6f6e657869737460008201527f656e7420746f6b656e0000000000000000000000000000000000000000000000602082015250565b60006146f0602983613922565b91506146fb82614694565b604082019050919050565b6000602082019050818103600083015261471f816146e3565b9050919050565b7f4552433732313a2062616c616e636520717565727920666f7220746865207a6560008201527f726f206164647265737300000000000000000000000000000000000000000000602082015250565b6000614782602a83613922565b915061478d82614726565b604082019050919050565b600060208201905081810360008301526147b181614775565b9050919050565b7f457468657220746f6f206c6f7720666f72206d696e74696e6721000000000000600082015250565b60006147ee601a83613922565b91506147f9826147b8565b602082019050919050565b6000602082019050818103600083015261481d816147e1565b9050919050565b600081905092915050565b600061483a82613917565b6148448185614824565b9350614854818560208601613933565b80840191505092915050565b600061486c828461482f565b915081905092915050565b7f54686973204e465420697320616c7265616479206d696e746564210000000000600082015250565b60006148ad601b83613922565b91506148b882614877565b602082019050919050565b600060208201905081810360008301526148dc816148a0565b9050919050565b7f53616c6573206e6f7420616c6c6f776564210000000000000000000000000000600082015250565b6000614919601283613922565b9150614924826148e3565b602082019050919050565b600060208201905081810360008301526149488161490c565b9050919050565b600061495a826138e3565b9150614965836138e3565b9250817fffffffffffffffffffffffffffffffffffffffffffffffffffffffffffffffff048311821515161561499e5761499d614631565b5b828202905092915050565b7f4e487b7100000000000000000000000000000000000000000000000000000000600052601260045260246000fd5b60006149e3826138e3565b91506149ee836138e3565b9250826149fe576149fd6149a9565b5b828204905092915050565b6000614a14826138e3565b91507fffffffffffffffffffffffffffffffffffffffffffffffffffffffffffffffff821415614a4757614a46614631565b5b600182019050919050565b6000608082019050614a6760008301876138ed565b614a7460208301866138ed565b8181036040830152614a868185613977565b9050614a9560608301846138ed565b95945050505050565b7f457468657220746f6f206c6f7720666f72207075726368617365210000000000600082015250565b6000614ad4601b83613922565b9150614adf82614a9e565b602082019050919050565b60006020820190508181036000830152614b0381614ac7565b9050919050565b7f4f7065726174696f6e204e6f7420416c6c6f7765642100000000000000000000600082015250565b6000614b40601683613922565b9150614b4b82614b0a565b602082019050919050565b60006020820190508181036000830152614b6f81614b33565b9050919050565b60008190508160005260206000209050919050565b60008154614b9881614264565b614ba28186613922565b94506001821660008114614bbd5760018114614bcf57614c02565b60ff1983168652602086019350614c02565b614bd885614b76565b60005b83811015614bfa57815481890152600182019150602081019050614bdb565b808801955050505b50505092915050565b6000608082019050614c2060008301876138ed565b614c2d60208301866138ed565b8181036040830152614c3f8185614b8b565b9050614c4e60608301846138ed565b95945050505050565b7f457468657220746f6f206c6f7721000000000000000000000000000000000000600082015250565b6000614c8d600e83613922565b9150614c9882614c57565b602082019050919050565b60006020820190508181036000830152614cbc81614c80565b9050919050565b7f4552433732314d657461646174613a2055524920717565727920666f72206e6f60008201527f6e6578697374656e7420746f6b656e0000000000000000000000000000000000602082015250565b6000614d1f602f83613922565b9150614d2a82614cc3565b604082019050919050565b60006020820190508181036000830152614d4e81614d12565b9050919050565b6000614d61828561482f565b9150614d6d828461482f565b91508190509392505050565b7f4f776e61626c653a206e6577206f776e657220697320746865207a65726f206160008201527f6464726573730000000000000000000000000000000000000000000000000000602082015250565b6000614dd5602683613922565b9150614de082614d79565b604082019050919050565b60006020820190508181036000830152614e0481614dc8565b9050919050565b7f4552433732313a206f70657261746f7220717565727920666f72206e6f6e657860008201527f697374656e7420746f6b656e0000000000000000000000000000000000000000602082015250565b6000614e67602c83613922565b9150614e7282614e0b565b604082019050919050565b60006020820190508181036000830152614e9681614e5a565b9050919050565b7f4552433732313a207472616e73666572206f6620746f6b656e2074686174206960008201527f73206e6f74206f776e0000000000000000000000000000000000000000000000602082015250565b6000614ef9602983613922565b9150614f0482614e9d565b604082019050919050565b60006020820190508181036000830152614f2881614eec565b9050919050565b7f4552433732313a207472616e7366657220746f20746865207a65726f2061646460008201527f7265737300000000000000000000000000000000000000000000000000000000602082015250565b6000614f8b602483613922565b9150614f9682614f2f565b604082019050919050565b60006020820190508181036000830152614fba81614f7e565b9050919050565b6000614fcc826138e3565b9150614fd7836138e3565b9250827fffffffffffffffffffffffffffffffffffffffffffffffffffffffffffffffff0382111561500c5761500b614631565b5b828201905092915050565b7f4f776e61626c653a2063616c6c6572206973206e6f7420746865206f776e6572600082015250565b600061504d602083613922565b915061505882615017565b602082019050919050565b6000602082019050818103600083015261507c81615040565b9050919050565b600081905092915050565b50565b600061509e600083615083565b91506150a98261508e565b600082019050919050565b60006150bf82615091565b9150819050919050565b7f4552433732313a20617070726f766520746f2063616c6c657200000000000000600082015250565b60006150ff601983613922565b915061510a826150c9565b602082019050919050565b6000602082019050818103600083015261512e816150f2565b9050919050565b7f4552433732313a207472616e7366657220746f206e6f6e20455243373231526560008201527f63656976657220696d706c656d656e7465720000000000000000000000000000602082015250565b6000615191603283613922565b915061519c82615135565b604082019050919050565b600060208201905081810360008301526151c081615184565b9050919050565b600081519050919050565b600082825260208201905092915050565b60006151ee826151c7565b6151f881856151d2565b9350615208818560208601613933565b61521181613966565b840191505092915050565b60006080820190506152316000830187613a5d565b61523e6020830186613a5d565b61524b60408301856138ed565b818103606083015261525d81846151e3565b905095945050505050565b60008151905061527781613854565b92915050565b6000602082840312156152935761529261381e565b5b60006152a184828501615268565b91505092915050565b7f4e487b7100000000000000000000000000000000000000000000000000000000600052603160045260246000fd5b7f4552433732313a206d696e7420746f20746865207a65726f2061646472657373600082015250565b600061530f602083613922565b915061531a826152d9565b602082019050919050565b6000602082019050818103600083015261533e81615302565b9050919050565b7f4552433732313a20746f6b656e20616c7265616479206d696e74656400000000600082015250565b600061537b601c83613922565b915061538682615345565b602082019050919050565b600060208201905081810360008301526153aa8161536e565b905091905056fea2646970667358221220461e3ee0f92f1f2ec652cc94ce099b5e9c370f01b20e4776ca1ec2cc182fa56364736f6c634300080b0033",
  "immutableReferences": {},
  "source": "// SPDX-License-Identifier: MIT\r\npragma solidity >=0.7.0 <0.9.0;\r\n\r\nimport \"./ERC721.sol\";\r\nimport \"./ERC721Enumerable.sol\";\r\nimport \"@openzeppelin/contracts/access/Ownable.sol\";\r\n\r\ncontract TimelessNFT is ERC721Enumerable, Ownable {\r\n    using Strings for uint256;\r\n    mapping(string => uint8) existingURIs;\r\n    mapping(uint256 => address) public holderOf;\r\n\r\n    address public artist;\r\n    uint256 public royalityFee;\r\n    uint256 public supply = 0;\r\n    uint256 public totalTx = 0;\r\n    uint256 public cost = 0.01 ether;\r\n\r\n    event Sale(\r\n        uint256 id,\r\n        address indexed owner,\r\n        uint256 cost,\r\n        string metadataURI,\r\n        uint256 timestamp\r\n    );\r\n\r\n    struct TransactionStruct {\r\n        uint256 id;\r\n        address owner;\r\n        uint256 cost;\r\n        string title;\r\n        string description;\r\n        string metadataURI;\r\n        uint256 timestamp;\r\n    }\r\n\r\n    TransactionStruct[] transactions;\r\n    TransactionStruct[] minted;\r\n\r\n    constructor(\r\n        string memory _name,\r\n        string memory _symbol,\r\n        uint256 _royalityFee,\r\n        address _artist\r\n    ) ERC721(_name, _symbol) {\r\n        royalityFee = _royalityFee;\r\n        artist = _artist;\r\n    }\r\n\r\n    function payToMint(\r\n        string memory title,\r\n        string memory description,\r\n        string memory metadataURI,\r\n        uint256 salesPrice\r\n    ) external payable {\r\n        require(msg.value >= cost, \"Ether too low for minting!\");\r\n        require(existingURIs[metadataURI] == 0, \"This NFT is already minted!\");\r\n        require(msg.sender != owner(), \"Sales not allowed!\");\r\n        \r\n\r\n        uint256 royality = (msg.value * royalityFee) / 100;\r\n        payTo(artist, royality);\r\n        payTo(owner(), (msg.value - royality));\r\n\r\n        supply++;\r\n\r\n        minted.push(\r\n            TransactionStruct(\r\n                supply,\r\n                msg.sender,\r\n                salesPrice,\r\n                title,\r\n                description,\r\n                metadataURI,\r\n                block.timestamp\r\n            )\r\n        );\r\n\r\n        emit Sale(\r\n            supply,\r\n            msg.sender,\r\n            msg.value,\r\n            metadataURI,\r\n            block.timestamp\r\n        );\r\n\r\n        _safeMint(msg.sender, supply);\r\n        existingURIs[metadataURI] = 1;\r\n        holderOf[supply] = msg.sender;\r\n    }\r\n\r\n    function payToBuy(uint256 id) external payable {\r\n        require(msg.value >= minted[id - 1].cost, \"Ether too low for purchase!\");\r\n        require(msg.sender != minted[id - 1].owner, \"Operation Not Allowed!\");\r\n\r\n        uint256 royality = (msg.value * royalityFee) / 100;\r\n        payTo(artist, royality);\r\n        payTo(minted[id - 1].owner, (msg.value - royality));\r\n\r\n        totalTx++;\r\n\r\n        transactions.push(\r\n            TransactionStruct(\r\n                totalTx,\r\n                msg.sender,\r\n                msg.value,\r\n                minted[id - 1].title,\r\n                minted[id - 1].description,\r\n                minted[id - 1].metadataURI,\r\n                block.timestamp\r\n            )\r\n        );\r\n\r\n        emit Sale(\r\n            totalTx,\r\n            msg.sender,\r\n            msg.value,\r\n            minted[id - 1].metadataURI,\r\n            block.timestamp\r\n        );\r\n\r\n        minted[id - 1].owner = msg.sender;\r\n    }\r\n\r\n    function changePrice(uint256 id, uint256 newPrice) external returns (bool) {\r\n        require(newPrice > 0 ether, \"Ether too low!\");\r\n        require(msg.sender == minted[id - 1].owner, \"Operation Not Allowed!\");\r\n\r\n        minted[id - 1].cost = newPrice;\r\n        return true;\r\n    }\r\n\r\n    function payTo(address to, uint256 amount) internal {\r\n        (bool success, ) = payable(to).call{value: amount}(\"\");\r\n        require(success);\r\n    }\r\n\r\n    function getAllNFTs() external view returns (TransactionStruct[] memory) {\r\n        return minted;\r\n    }\r\n\r\n    function getNFT(uint256 id) external view returns (TransactionStruct memory) {\r\n        return minted[id - 1];\r\n    }\r\n\r\n    function getAllTransactions() external view returns (TransactionStruct[] memory) {\r\n        return transactions;\r\n    }\r\n}",
  "sourcePath": "C:\\Users\\Dev Rojas\\Desktop\\Solidity2023\\Projects\\FlashpointNFT\\src\\contracts\\FlashpointNFT.sol",
  "compiler": {
    "name": "solc",
    "version": "0.8.11+commit.d7f03943.Emscripten.clang"
  },
  "schemaVersion": "3.4.13",
  "updatedAt": "2023-05-06T14:07:20.104Z",
  "devdoc": {
    "kind": "dev",
    "methods": {
      "approve(address,uint256)": {
        "details": "See {IERC721-approve}."
      },
      "balanceOf(address)": {
        "details": "See {IERC721-balanceOf}."
      },
      "getApproved(uint256)": {
        "details": "See {IERC721-getApproved}."
      },
      "isApprovedForAll(address,address)": {
        "details": "See {IERC721-isApprovedForAll}."
      },
      "name()": {
        "details": "See {IERC721Metadata-name}."
      },
      "owner()": {
        "details": "Returns the address of the current owner."
      },
      "ownerOf(uint256)": {
        "details": "See {IERC721-ownerOf}."
      },
      "renounceOwnership()": {
        "details": "Leaves the contract without owner. It will not be possible to call `onlyOwner` functions anymore. Can only be called by the current owner. NOTE: Renouncing ownership will leave the contract without an owner, thereby removing any functionality that is only available to the owner."
      },
      "safeTransferFrom(address,address,uint256)": {
        "details": "See {IERC721-safeTransferFrom}."
      },
      "safeTransferFrom(address,address,uint256,bytes)": {
        "details": "See {IERC721-safeTransferFrom}."
      },
      "setApprovalForAll(address,bool)": {
        "details": "See {IERC721-setApprovalForAll}."
      },
      "supportsInterface(bytes4)": {
        "details": "See {IERC165-supportsInterface}."
      },
      "symbol()": {
        "details": "See {IERC721Metadata-symbol}."
      },
      "tokenByIndex(uint256)": {
        "details": "See {IERC721Enumerable-tokenByIndex}."
      },
      "tokenOfOwnerByIndex(address,uint256)": {
        "details": "See {IERC721Enumerable-tokenOfOwnerByIndex}."
      },
      "tokenURI(uint256)": {
        "details": "See {IERC721Metadata-tokenURI}."
      },
      "totalSupply()": {
        "details": "See {IERC721Enumerable-totalSupply}."
      },
      "transferFrom(address,address,uint256)": {
        "details": "See {IERC721-transferFrom}."
      },
      "transferOwnership(address)": {
        "details": "Transfers ownership of the contract to a new account (`newOwner`). Can only be called by the current owner."
      }
    },
    "version": 1
  },
  "userdoc": {
    "kind": "user",
    "methods": {},
    "version": 1
  }
}